:020000040800F2
:10000000B0220020D5000008DD1400083B110008D4
:1000100000000000000000000000000000000000E0
:10002000000000000000000000000000611800084F
:100030000000000000000000391500080D1A00083B
:10004000E7000008E7000008E7000008E7000008F4
:10005000E7000008E7000008E7000008790D000845
:10006000E7000008E7000008E7000008E7000008D4
:10007000E7000008E7000008511B0008E70000083F
:10008000E7000008E700000800000000E7000008A3
:10009000E7000008E7000008E7000008E7000008A4
:1000A000E7000008E7000008E7000008E700000894
:1000B000E7000008E7000008E7000008E700000884
:1000C0000348854600F078FC0048004739210008C5
:1000D000B02200200448804704480047FEE7FEE7BE
:1000E000FEE7FEE7FEE7FEE71D1A0008C100000874
:1000F00030B50B46014600202022012409E00D46C0
:10010000D5409D4205D31D469540491B2546954047
:1001100040191546521E002DF1DC30BDF0B51FB45C
:100120000646002082B005464024019100901BE065
:10013000019922460F46304600F052FB049A059B77
:10014000801A994110D310461946224600F038FB18
:10015000361A8F410197224601200021009F00F0AE
:100160002FFB38184D4100902046641E0028DFDC2C
:10017000019B00982946324607B0F0BD0048704701
:10018000A47F000810B50446FFF7F8FF0068005D83
:10019000C007C00F10BD03460B439B0703D009E007
:1001A00008C9121F08C0042AFAD203E00B780370B2
:1001B000401C491C521EF9D27047D2B201E00270B5
:1001C000401C491EFBD270470022F6E710B51346CB
:1001D0000A4604461946FFF7F0FF204610BD0321EA
:1001E000001D401E037812021A43491EF9D510461D
:1001F0007047034603220870000A491C521EFAD5B4
:10020000184670470FB400B58DB009900B9010A937
:1002100000200091C0430A9000200C9006480690F0
:10022000064807906A4609A80F9900F013FB0DB025
:1002300008BC04B0184700007508000895080008BD
:10024000FFB50027FF4383B000205C6801909E68E3
:100250001D46A9697F1C049888470090296A884731
:100260000028F6D10098401C0CD0032040028443A3
:10027000002E19DD600614D500982B2809D02D28F2
:100280000FD103E00020C04307B0F0BD0120800281
:100290000443A9697F1C04988847761E0090002EAD
:1002A00002DD0098302803D00598002825D035E0DD
:1002B000012040020443A969761E7F1C04988847E8
:1002C0000090002E03DD782805D0582803D005982B
:1002D000002810D022E00598002801D010281DD158
:1002E000012040028443A969761E7F1C0498884738
:1002F0000090102002E0082000E00A2005900DE0A8
:10030000012149020C43059A0199761E51430818B0
:100310000190A9697F1C049888470090002E05DD94
:100320000599009800F080FA0028E9DAE969049854
:100330008847A00502D40120C043A5E7E00722D1E9
:10034000600611D56005019800D5404229680A1D54
:100350002A600968220501D5087014E0220701D53A
:10036000088010E008600EE02868011D2960006820
:10037000210502D50199017005E02107019901D5F8
:10038000018000E0016038467EE7FFB5002083B0C1
:10039000009050680190916914460026976804986F
:1003A000884705460C990698084305D009E0A169DD
:1003B000761C049888470546216A28468847002805
:1003C000F5D1681C03D00198C00704D017E00020C5
:1003D000C04307B0F0BD2068011D21600068009097
:1003E0000DE00198C00704D1009805700098401CEA
:1003F0000090A169761C7F1E049888470546002F4F
:100400001CDD681C1AD0069800280FD0E817C00E13
:10041000401941118A0006994009511840012A1AD1
:100420000968012090400142DBD107E00C980028C8
:10043000D7D1216A284688470028D2D0E16904989C
:1004400088470C98002807D1002E05DD0198C007C9
:1004500002D1009800210170A068B84204DD0C9818
:10046000002804D0002F02D00120C043B1E730465D
:10047000AFE70000F0B507460846584087B0C00F08
:10048000049048000E46590040084908BC1A8841AB
:1004900005D2384631461E4617460B4602465800DE
:1004A000400810434CD0300D039040055900400DDA
:1004B000490D0590401A0290402872DA1803012174
:1004C000000B09050843019004980092002805D00C
:1004D00001995242002088410092019002984021E7
:1004E0000A1A0199009800F06BF905460C466B4614
:1004F00007CB00F086F9C0197141039A0E0D002355
:10050000D71756401A467A40164344D0049A002A18
:100510002DD0029A012A039A15DC1205C01A9141C6
:1005200001263605001C7141D20F059ED2070093AB
:10053000019202962A46234600F0CBF907B0F0BD9F
:1005400038463146FAE71605224A0F46B218C01A55
:10055000B74101210905001C4F4100187F41114698
:1005600018187941E20F10436D19644113E0E20756
:100570006D0815436408C2071443039A0126120547
:10058000C01A91413605001C7141CE074008304326
:100590004908C01851412A46234600F08DF9CDE79D
:1005A000FFE7049801224000C117121A00238B4173
:1005B00004983146C417381AA141EEE730B401243B
:1005C000E407634030BC55E730B40124E4076140E0
:1005D00030BC4FE70000E0FFF0B51FB488B00B99C6
:1005E0000998002448400999C00F49004908099119
:1005F000C0070B990090490049080B910999089888
:10060000A64608431CD00B990A98084318D00998AD
:1006100001244000420D4800410D099824050003C3
:10062000000B204309900B980003000B20430B9014
:1006300050181C494018002201901446104605E04D
:10064000002001460DB0F0BD032801DA034600E0AA
:1006500003239C46C11A0AAE0AE05F0008ADED5BB9
:100660004F00F75B7D430027AA187C41491C5B1EA5
:100670006145F2DD410004AB5A522104120C0A43D9
:10068000240C401C0828DFDB01980290009970467A
:1006900001910090059B049A0799069800F019F9BA
:1006A000D0E700000DFCFFFFF0B50C465C4085B0C4
:1006B000E40FE40703944C000026640859009446B4
:1006C000490802460296224321D062460A431ED0C0
:1006D0006200570D4A000E032303550D0124024604
:1006E0002C492405781B1B0B360B4018234326434B
:1006F000614600901C46501AB44103D30098401C38
:10070000009002E0921800985B41002803DA002074
:10071000014605B0F0BD00200121090507468646C7
:1007200011E064461D46141BB54106D36546521BB5
:10073000B341744607430C43A646CD074008490819
:10074000284392185B4105460D43EAD110461843F1
:1007500013D06046194650407140084306D06046A9
:10076000101AB34106D20122002306E00022012321
:10077000DB0702E00122D2435310009874460105C2
:10078000381C6141029C039D0019694100F094F8F6
:10079000BFE70000FD03000010B5002904DB0124C1
:1007A000E40740428C412146002B04DB1C46012318
:1007B000DB075242A341994200D1904210BD000094
:1007C00010B5202A04DB0146203A9140002010BDDC
:1007D000914020239C1A0346E3401943904010BDEA
:1007E00010B5202A04DB0846203AD040002110BD75
:1007F0000B46D340D0402024A21A9140084319460A
:1008000010BD10B5202A06DBCB170846203A104150
:10081000C1170B4306E00B461341D0402024A21A17
:1008200091400843194610BD3A2800D230382023A1
:1008300002469A43412A01D310463738884201D3F1
:100840000020C0437047000002681378511801600F
:100850001846704710B5D1600449516104491162CE
:1008600000211161114600F0B9F810BD49080008D7
:10087000850100084268002A08D001680B78491CED
:10088000002B03D0521E06C0184670470121C160DC
:10089000881E70474268002A0BD0C3680168002B8D
:1008A00007D183688B4204D0491E521C06C0002029
:1008B00070470020C043704710B5002B08DA0024B1
:1008C000401C614192185B411A4301D1400840002D
:1008D00010BDF0B51FB482B005460C0003D0084629
:1008E00002F0DEFB02E002F0DBFB2030024600906B
:1008F00021462846FFF764FF049B059A04460F46ED
:1009000018431143084314D0184610431BD00098D5
:1009100040210A1A18460599FFF762FF05460E4660
:10092000009A05990498FFF74BFF084305D0012072
:1009300004E02046394607B0F0BD0020C11705434A
:100940000E432C43374300990E986305401A7905EE
:10095000E40A00220C43FD0A0A3002D500200146B9
:10096000E9E70105101969410C9C0D9D00196941C9
:10097000FFF7A2FFDFE700004A0009030123090B8C
:100980001B0519430A4B10B5520D9A4202DA00209A
:10099000014610BD064B34339A4203DC9A1AFFF726
:1009A0001FFF10BD034BD218FFF70AFF10BD000058
:1009B000FF030000CDFBFFFF064C0125064E05E0BE
:1009C000E36807CC2B430C3C98471034B442F7D370
:1009D000FFF77AFBB8870008D8870008F3B58DB019
:1009E00000200A9001200B90002608460C300C468F
:1009F00009906269012109989047051E2ED0252D86
:100A00002DD0216A8847002818D0626901210998F1
:100A10009047216A88470028F7D1411E62690998EA
:100A2000904700E0761CA1690D988847216A8847A5
:100A30000028F7D1E1690D988847DAE7A1690D9898
:100A400088470746A84201D1761CD2E7E1690D9894
:100A500088477F1C02D10A98002877D049E10027F7
:100A600062693D463946099890472A280CD1626947
:100A7000012109989047012506E00A214F433F18BC
:100A8000303FEBD41020054362690121099890475B
:100A9000014630390A2903D29B498F42DEDCECE75C
:100AA000E90600D4994F6C280AD04C2810D0682849
:100AB00024D06A282ED074280CD07A280AD00DE0D1
:100AC00062690121099890476C2823D004211CE019
:100AD000202005436269012109989047A76065605D
:100AE00065284FD026DC582839D01ADC452849D053
:100AF00012DC252834D04128B0D143E062690121BD
:100B000009989047682802D008210D43E6E70120A4
:100B1000C002DEE70220DCE7462833D047282CD18C
:100B200030E05B2870D061282CD063286CD064281A
:100B300023D161E06F284FD009DC662822D06728D6
:100B400020D0692826D06E2817D12EE0CDE070285D
:100B50004DD073286FD075284ED078280DD154E031
:100B6000A1690D9888470546252800D16CE7E16901
:100B70000D9888476D1C00D16DE7BAE00A224CE061
:100B80000A2252E0012023466A46C0430D99C0461E
:100B9000C046A3E02846402108436060A8072346DA
:100BA00001D5002239E000223FE0E80700D020E72D
:100BB0002068011D21600068290501D5067018E72D
:100BC000290701D5068014E7A90703D5F1170660A8
:100BD00041600EE706600CE728464021084360604C
:100BE000A807234601D5082217E008221DE048493E
:100BF00028460840606016E02846402108436060AF
:100C0000A8072346BCD5B9E715E02846402108438C
:100C10006060A80707D5234610220120C0430D9924
:100C2000C046C0465AE0234610220120C0430D9919
:100C3000FFF706FB52E000210C910B460091632860
:100C400002D05B2807D043E0E80601D40120A06071
:100C5000012000903CE062690121099890475E28DC
:100C600005D101200C9001466269099890472169DD
:100C7000002906D10B4601AA8F00491CD35108292F
:100C8000FADB002835D0216900290ED1C117C90E21
:100C900009184A11930001AA9A1849094901411AF1
:100CA0000120136888400343136062690121099899
:100CB00090475D28E5D10C98002808D0002001ABB2
:100CC00081005A58401CD2435A500828F8DB01AB27
:100CD00001202246C0430D99FFF757FB00280ADA8E
:100CE000401C06D10B98002803D00020C0430FB051
:100CF000F0BD0A98FBE7E90702D10A99491C0A915D
:100D0000361800200B9074E6CCCCCC0CFFFFFF7F94
:100D1000F1F7FFFF10B50446064800687D21C900C1
:100D2000FFF7E6F9604304D0002100BF491C81426F
:100D3000FBD310BD60010020B0B588B00124A00530
:100D4000214600F009FC002002900949019103901E
:100D50000490059006900790064D01A9284600F0E2
:100D600023FB2846214600F0EBF908B0B0BDC04691
:100D7000070521000058004010B50120040320465B
:100D800000F00AF8002802D0204600F001F810BD5B
:100D9000054908607047C046034909680140481E7C
:100DA000814108467047C0461404014034490A682E
:100DB000120602D4091F086070470A460C3A374BE6
:100DC0001360374B13600A1F1060086880220243CB
:100DD0000A607047F0B581B005460B200404204638
:100DE00000F060F804280FD1254E30680227384300
:100DF000306075603068402101433160204600F06A
:100E000051F83168B943316001B0F0BD0A4801685A
:100E1000C9070AD10168C90609D40168490702D483
:100E20000068400505D50320704701207047022067
:100E3000704704207047C0460C20024010480168EB
:100E400080220A4302607047F0B581B00C46054627
:100E5000002000900B200604304600F023F8042800
:100E60000CD1074908680127384308602C603046D8
:100E700000F018F8024A1168B943116001B0F0BDE2
:100E8000102002400448C168090603D503490160E7
:100E9000034901607047C0460420024023016745B2
:100EA000AB89EFCDB0B50446FFF7B0FF002C0DD0F5
:100EB00001280BD1651EFFF7A9FF012C02D00128E4
:100EC0002C46F7D0002D00D10520B0BD2546002DC1
:100ED000FBD1F9E7F0B58BB061480990042006908A
:100EE00008900926F50608AC2846214600F0C0F80F
:100EF00002210791012728463A4600F0FDF8082014
:100F000008902846214600F0B3F8032104912846B2
:100F10003A4600F0F1F878020597089028462146F5
:100F200000F0A6F828463146324600F0E5F8B8024F
:100F300008902846214600F09BF80A2128463246B0
:100F400000F0DAF81020039008902846214600F0BF
:100F50008FF80527284606993A4600F0CDF820205C
:100F6000029008902846214600F082F8284639462B
:100F70003A4600F0C1F8059F08972846214600F040
:100F800077F8002101912846324600F0B5F807981D
:100F900008902846214600F06BF82846394632462C
:100FA00000F0AAF82F4809904020089028462146D2
:100FB00000F05EF806212846069E324600F09CF8B6
:100FC000802008902846214600F052F80721284644
:100FD000324600F091F8244809903E46F802089005
:100FE0002846214600F044F8079FE771F003089077
:100FF0002846214600F03CF8E771039808901B4E04
:101000003046214600F034F8E771029808903046E7
:10101000214600F02DF8FF20023009900897304655
:10102000214600F025F8019EE67104982071059F85
:1010300008970E48214600F01BF8E6712671380328
:1010400008902846214600F013F8E67126710798AB
:1010500008900648214600F00BF80BB0F0BDC046E2
:101060000203010002030001010300010004004823
:10107000F0B50A6800231C4614E003269E4007686A
:10108000B74307609D4007682F430760C568B543B5
:10109000C560CD799D40C6682E43C6609B1C641C0C
:1010A000102C1DD01546E540ED07F7D00D796E1ECA
:1010B000012EE2D803269E408768B74387604E79A9
:1010C0009E408768374387600126A6404768B7433C
:1010D00047608E79A640B6B2476837434760CCE791
:1010E0000A68097A002903D0016B91430163F0BDBE
:1010F000016B11430163F0BDB0B54B07DB0E0F244C
:101100009C400725A943082901D0202100E0242183
:101110004558A54345509A40435813434350B0BDEA
:1011200000690840411E88417047002A02D01822F9
:1011300081507047282281507047FEE7C161704797
:1011400002680123002902D01A43026070479A43C3
:1011500002607047F0B583B017460D4606461F2162
:101160000A4008407C09002830D0002C4DD0019165
:1011700020210C1A30462946224600F065F800214D
:10118000029101285CD100F0D5F8012858D13F1B0D
:10119000B8B2214644096D188E19002C0FD0B0B298
:1011A0002022294600F050F8012849D100F0C2F869
:1011B000012845D1641E203520362004EFD1019846
:1011C000074037D0B0B229463A4619E0002C25D066
:1011D0000192B0B22022294600F036F800270128FB
:1011E0002BD100F0A7F8012829D1641E2035203624
:1011F0002004EED10297019A002A1BD0B0B22946F2
:1012000000F022F801281BD110E03046294600F0FA
:101210001BF800210291012812D107E0304629462F
:1012200000F012F800210128029109D100F082F8A3
:10123000012805D10120029002E0029700E0029708
:10124000029803B0F0BD0000F0B585B003920291A2
:101250000490A14F4B4C3E460125E903204600F087
:101260009EF8002802D0761EF6D150E06803009068
:101270002B06A0210222204600F0C8F83E4602219B
:10128000204600F08CF8002802D1761EF7D13EE00F
:101290000498010A204600F0B7F83E460221204695
:1012A00000F07DF8002802D1761EF7D12FE00498D7
:1012B000C1B2204600F0A8F83E468021204600F04A
:1012C0006EF8002802D1761EF7D120E000200490AD
:1012D00000906B06A0212046039E324600F096F84F
:1012E000002E049E19D00221204600F058F8002854
:1012F00002D17F1EF7D10AE00298815D204600F0FE
:1013000083F8761C03988642734FECD105E00020E9
:1013100005B0F0BD00207F1E0AD02021204600F03D
:101320003EF80028F6D020212046FFF707FF284688
:1013300005B0F0BDF0B581B0002400940120430653
:10134000104DA0212846224600F060F8624F30215F
:101350002846FFF7F3FE01262846314600F014F830
:101360007F1E0AD01021284600F019F80028EED17F
:1013700020212846FFF7E2FE00E02646304601B075
:10138000F0BDC046005800400122530342680029C6
:1013900002D01A43426070479A43426070478069A6
:1013A0000840411E8841704710B5036801229343ED
:1013B00003600368124C1C404B6823438C68240272
:1013C0001C4304600F231B060C689C4304610368E4
:1013D0001343036000238360C3608B690C691C4363
:1013E0008460D203836813438360CA68036813432D
:1013F00003604268034B134049691943416010BDC3
:10140000FFE0CF00FF7FFF078162704770B5FF24C8
:10141000240445682E46A6431204B4184460054CC3
:101420002C40054D0D401D4315430499294321438C
:10143000416070BD009800FCFF03000070B51E48BD
:1014400000881E49884235D0012001074F480268B4
:101450000A4302601A4A1B4BD3641B4B1C46083CD0
:101460002468651C06D0194D2C40156F184E2E406F
:10147000341914671C68651C13D0164D25402403CD
:10148000A4B2641914661C680F232340032B03D3F2
:101490009B1E1C031C4354660323DB0214689C43FD
:1014A0001460442313249466D3660B4BD364026800
:1014B0008A43026070BDC046F6F7FF1F9A650000C0
:1014C0000070004029040000E8DBFF1F1F1F000020
:1014D000E0E00000FF070000FFFF00007047000091
:1014E00001208003014908607047C04600E100E028
:1014F000002805D40322034693430B4A9A1806E0BA
:101500000F220240083A03239A43084BD21880075F
:10151000C00E4901C9B28140FF238340106898433F
:10152000084310607047C04600E400E01CED00E096
:1015300080B500F087FB80BD70470000054A002998
:1015400003D0116801431160704711688143116035
:101550007047C0461410024010B5012253020340E8
:101560000A4A002908D00A490C6823430B6020432B
:1015700011680143116010BD05490C689C430C6063
:10158000116821438143116010BDC0461C10024008
:1015900058190020054A002903D011680143116041
:1015A00070471168814311607047C04618100240AF
:1015B00010B50720400401242146FFF7BFFFA00318
:1015C0002146FFF7E7FF60042146FFF7C5FFA004AF
:1015D0002146FFF7C1FFE0042146FFF7BDFF2006CB
:1015E0002146FFF7B9FF60062146FFF7B5FF200748
:1015F0002146FFF7B1FF60072146FFF7ADFF204608
:101600002146FFF79BFF02202146FFF7A5FF20465A
:1016100000F016F910BD0000F0B583B00446784D17
:101620002F462C3F38688002000F831C3868C003A7
:1016300074480290744E754A02D47548584319E0B4
:10164000281F00680F210140491C10680004800F0A
:10165000022805D0012801D000280AD1304600E038
:1016600068480193FEF744FD684A019941430846E2
:1016700000E000201168090603D439680907890FC2
:1016800003E011688906490F10310122D2038B1E35
:10169000132B314617D831467B441B795B009F449E
:1016A0000B12121212121212121212121212090933
:1016B0000D0F1211114606E0014604E0554902E003
:1016C000554900E04F4900920190216039680906B0
:1016D000090F524A505C21680B46C340636038686A
:1016E0004005400F105CC340A36048480068800379
:1016F000870FB80001A21058374687461717000811
:101700000D17000811170008151700083D4F02E0DB
:101710000F4600E01F46E7603C4800680003870F63
:10172000B80002A2105837468746C046471700083F
:101730003D1700084117000845170008314F02E027
:101740000F4600E01F462761304800688001810F86
:101750000229009A03D001291E4600D11646A6622E
:101760002868072101404E1E032E194602D8B000FA
:101770002BA10958616128688006400F461E032E80
:10178000194602D8B00026A10958A1612868C005F1
:10179000400F461E032E194602D8B00020A109585A
:1017A000E16128680005400F461E032E194602D845
:1017B000B0001BA10958216228681042019800D08E
:1017C0001448E06228684003400F401E032802D8F6
:1017D000800013A10B586362103D28684005400F3C
:1017E000401E032803D8800011A1085802900298D7
:1017F000206328684001400F606303B0F0BDC0461D
:1018000030100240200B200000127A00E810024045
:1018100000093D00006CDC020024F400A8830008ED
:10182000200B200000800000008000000024F40055
:10183000008000000080000090D00300200B2000FA
:1018400006490A6801239A430A600A6804239A43F6
:101850000A600A6802430A607047C04620100240CE
:101860007047000003490A6803239A4302430A6051
:101870007047C0460000014080B5094800687D21DE
:10188000C900FEF735FC401E06494860002088600C
:1018900007220A60C0430321FFF72AFE80BDC0462D
:1018A0006001002010E000E0B0B51E4801460C3990
:1018B0001D4A0A601D4A0A600124210402688A4305
:1018C0000260016880220A43026019480188194DAC
:1018D000194A91420FD1A969184A0A40AA613F21C9
:1018E000890143880B409918A9610068800B3C224C
:1018F00002405018A861FFF7A1FDE00769680143A5
:101900006960A00269680143696020062968014393
:1019100029602868204328602868A043286000F0D8
:101920000FF8B0BD1020024023016745AB89EFCD11
:10193000F8F7FF1F0C1002408B74000003F0FFFF4C
:10194000F0B582B00023019300932D4C621C2D480A
:10195000011F0D6815430D60012255040E682E40CD
:101960000096019E761C0196009E002E02D1019EDB
:10197000A642F3D10C682C4201D0009200E0009303
:10198000009B012B3AD1204C236810251D43256074
:1019900023680725AB432360256802231D43256088
:1019A0000468046004680460846A0F25AC438462A0
:1019B000846A84620324A503304E3768AF433760DE
:1019C000356835603F252D040668AE430660112555
:1019D0002D0406682E43066012060D6815430D603F
:1019E0000A689201FCD50168A143016001681943AE
:1019F000016001680C220A40082AFAD102B0F0BD49
:101A0000FFFF00000410024000200240024801686D
:101A1000491C01607047C046A01A002010B5154847
:101A2000016801220A4302604168134A0A40426089
:101A300012490A6880239A430A600168104A0A40E2
:101A400002603F21090442688A434260C16A0F2252
:101A50009143C162016B132291430163416B0922DF
:101A60009143416300248460FFF71EFF0548046032
:101A700010BDC046001002400CC0FF80E8100240BC
:101A8000FFFFF6FE9020024080B504F0B1F880BD63
:101A9000B0B58AB016A002F02FF916A00090002071
:101AA00002AC202216A3214602F0AEFB17480278B2
:101AB000174D18A1284602F04DF91DA128462246CF
:101AC00002F048F904F0B1F804F0AAF800F096FB2F
:101AD00004F0B0F804F082F804F098F804F0B4F8D8
:101AE0001A4802F009F9042000F018FE0AB0B0BD4F
:101AF0000D0A000031353A35363A3339000000001E
:101B00004F63742031352032303235005C190020AB
:101B1000088400084F544D5320696E697469616CE4
:101B2000697A696E6720203A253032780D0A000004
:101B30004F544D532076657273696F6E20202020BC
:101B40002020203A2573200D0A000000B8830008E9
:101B5000F0B583B03A4F554C3846214600F0BDF8F9
:101B6000002808D0384600F03FF902AA1070012181
:101B7000104600F04DF8124D3846294600F099F80D
:101B8000104E3846314600F094F8474F384621460B
:101B900000F0A3F8002808D0384600F025F901AA83
:101BA00010700121104600F083F83846294600F0F5
:101BB00080F83846314600F07CF803B0F0BDC046EE
:101BC0000003030000030100B0B586B000200590BB
:101BD0000390029001900C200490E12040020090BC
:101BE000174C6946204600F0A7F8012520462946F3
:101BF00000F064F82D4920462A4600F086F80E20B1
:101C00000221FFF775FCFFF76BFC06B0B0BDC046C4
:101C100080B500F04DF980BD70B50446074E084D03
:101C20008021284600F054F8002802D1761CF7D312
:101C300070BD2846214600F0DBF870BD0100FFFFB3
:101C400000480040B0B5002908D00C460546287869
:101C5000FFF7E2FF641E6D1C002CF8D1B0BD000040
:101C6000B0B586B0002005900390029001900C2042
:101C70000490E120000200900B4C6946204600F0E1
:101C80005BF801252046294600F018F80749204650
:101C90002A4600F03AF80E200221FFF729FCFFF750
:101CA0001FFC06B0B0BDC046004C00400501050059
:101CB0007047090C01228A400262704702680123C2
:101CC000002902D01A43026070479A4302607047AD
:101CD000C0690840411E88417047CBB201229A403A
:101CE0000B0ADBB2022B03D0012B03D1034603E026
:101CF000031D01E0034608331B6813405A1E93413D
:101D0000090CC069C8401840704710B5CCB2012317
:101D1000090AC9B2032903D0022902D1001D00E03B
:101D20000830A340002A03D001681943016010BDA8
:101D300001689943016010BDF0B58FB00D460446AF
:101D4000006801210091884320600320010362683C
:101D50008A43A9681143616021681F4A0A40696883
:101D60001143EA680A432969114321600002A1680E
:101D7000814368690843A06001A8FFF74DFC17483C
:101D8000844205D01648844205D101A8143004E0ED
:101D900001A8183001E001A8083006682068000496
:101DA00000D576002F6830463946FEF7A1F9474343
:101DB000F11B009AD2032B685B08994200D3401CA8
:101DC0002168114204D0074901400007400F401824
:101DD00080B2E0600FB0F0BDF3E9FFFF00440040C7
:101DE00000380140F0FF0000416A03480840704796
:101DF000014A0A4082627047FF01000080B5FFF788
:101E000097FB002080BDC8B27047C8B27047C8B207
:101E10007047C8B27047C8B27047C8B27047C8B2FE
:101E20007047C8B270470000F0B581B00C46054657
:101E30006846002707704948006801794279120214
:101E400051188279C3791B029A181204521801782A
:101E500043781B0259188378C6783602F3181B049E
:101E60005B18011D9A4205D2C27A827A427A027ABE
:101E7000024601E00A460146D07890785078107802
:101E80008878C87808784878002C0ED00026374625
:101E900032480068694601F0D7FD002805D0009857
:101EA000A8557F1CFEB2A642F2D3F8B201B0F0BD35
:101EB00070B500290AD00C460546284E29783068AE
:101EC00001F015FE641E6D1C002CF7D170BDC046DC
:101ED000C8B2704780B502A005A101F03BFF80BDEC
:101EE00068616C5F6770696F5F696E69740000009C
:101EF00068616C206770696F20696E69740D0A00F3
:101F000080B5FFF70DF9411E884180BD10B514461C
:101F1000FFF70BF9601E8441204610BD80B505A077
:101F200008A101F017FF112002010C480C4901F033
:101F300065FD80BD68616C5F756172745F696E6913
:101F40007400000068616C207561727420696E69AC
:101F50007420666F722070746C0D0A008C1900205A
:101F60009019002070B582B00E460446002813D0A8
:101F7000002E1CD0207805282ED160781C2821D076
:101F80001B2821D101AA01251570009684201B2150
:101F90002B4603F08FFE42E0FF2074300090214872
:101FA000214922A2234B01F0D5FE002EE2D1FF20D1
:101FB0007430401C00901B481B491FA21D4B01F0B0
:101FC000C9FED7E700252AE060684378027805203B
:101FD000692104F0F3F92078002585281FD1606875
:101FE0000178FF2902D116490022CA7242781449A9
:101FF0008B79934207D002788A714278CA71012A9C
:1020000001D10022CA72A178022904D34178007854
:1020100000F07AFD03E00178607800F075FD284655
:1020200002B070BDEF840008868400087061796C8E
:102030006F616400AE84000861636B627566660060
:1020400064190020002805D0002181720172C1713D
:10205000C160016170470000F0B585B01C461546AF
:102060000E460746002B08D11520000100901548A8
:10207000154916A2174B01F06DFE00200390029047
:10208000852F0CD0052F1BD102A8457006700D4876
:102090001DA132462B4601F05DFE052009E002A895
:1020A0004570067007480CA132462B4601F052FEDF
:1020B000852000941D2102AA022303F0FBFD0120CC
:1020C00005B0F0BDDE84000886840008627566668F
:1020D00000000000AE840008534F435F544F5F4D33
:1020E00043555F4D4F445F4B455920706172616DA0
:1020F000313D2530326420706172616D323D253092
:1021000032640D0A000000004D43555F544F5F5389
:102110004F435F4D4F445F4B455920706172616D75
:10212000313D2530326420706172616D323D253061
:1021300032640D0A000000000123DA0602200024A8
:10214000214603F015FAFFF797FBFFF731FAFEF788
:10215000C1FEFEF7F1FDFFF737FDFFF781FD04201B
:1021600001F042FE11A114A2204602F041FCFFF74B
:102170008FFC144C204600F0DDFE6420FEF7CAFD03
:10218000114F12A513A602E00020FFF77DFC2046A8
:1021900000F07EFEB842F7D3024623682846314657
:1021A00001F0D8FD204600F0C0FEEDE74F6374203B
:1021B000313520323032350031353A35363A333820
:1021C000000000008019002020BF02006D61696ED0
:1021D000000000007461736B206D616E6167657251
:1021E000207374617465206D616368696E65206C2D
:1021F0006F6F702025642F25640D0A0080B50020C4
:10220000FFF78CFE80BD000010B5224C207801281D
:102210000AD1214800F03CFE2049884204D31E48E0
:1022200000F0CCFE04202070002003F06FFB044679
:1022300000786178090208186C2813D0662821D12B
:10224000174827A101F086FDA078E1780902081857
:102250000C2818D0042819D0032813D1012000F02D
:1022600093F810BD0E480FA101F074FDA078E1783D
:1022700009020A182079617909020B1803208021CC
:1022800004F09CF810BD00F0E1F810BD002000F053
:102290007BF810BD5D19002078190020B90B0000F3
:1022A000EA8500084D53475F4F54534D5F444556F0
:1022B0004943455F424C455F4556454E54206E6F3D
:1022C0007469667920626C6520746F204F4E2F4FC1
:1022D00046462070616972206D6F64650D0A0000CA
:1022E000476F74204576656E74204D53475F4445B3
:1022F000564943455F504F5745525F4556454E54EA
:102300000D0A000080B503F073FB80BDB0B50CA0D2
:1023100013A101F01FFD03241322002520462146AE
:102320002B4604F04BF81222204621462B4604F09F
:1023300045F81422204621462B4604F03FF8B0BD54
:1023400073797374656D5F6D63755F696E697461D0
:1023500074655F72656D6F74655F736F6300000015
:1023600053796E6368726F6E697A6174696F6E20FB
:102370006461746120776974682072656D6F74653B
:1023800020536F430D0A000010B5002816D0012419
:10239000204603F035FB11481FA101F0DBFC20466D
:1023A00003F02EFB03F024FB002816D01F48042165
:1023B00001700A481EA101F0CDFC10BD074808A11C
:1023C00001F0C8FC002003F01BFB03F011FB002808
:1023D00003D1024808A101F0BDFC10BDC38500086F
:1023E000506F77657220646F776E20534F432E2EA7
:1023F0002E200D0A00000000506F77657220646F78
:10240000776E20534F432073756363657366756CF5
:102410006C790D0A00000000506F776572206F6EB6
:1024200020736F632E2E2E0D0A0000005D19002010
:10243000506F776572206F6E20736F6320737563C2
:1024400063657366756C6C790D0A000010B5054CF8
:1024500005A1204601F07EFC09A1204601F07AFC8E
:1024600010BDC046B185000853797374656D20694D
:1024700073207265626F6F74696E672E2E2E0A006C
:102480004661696C656420746F2065786563757456
:1024900065207265626F6F7420636F6D6D616E642D
:1024A0000000000070B582B00C460646002825D01A
:1024B000002C2DD030780025802862D170786928D2
:1024C0002FDC002840D002285BD102F011F805462D
:1024D00002F00EF8C0B201F0D3FF00902A484C4938
:1024E000402632462B4601F035FC009400200221A4
:1024F0007C4A334603F0DEFB012542E0FE200090DB
:102500002148224922A2244B01F024FC002CD1D1E5
:10251000FF2000901C481D4920A21F4B01F01AFC0F
:10252000C8E76A2820D06B282BD1706842781648FB
:102530001EA101F00FFC70684078042821D100250D
:102540002846FFF721FF1CE00F483249802201F0A6
:1025500001FCFFF7DBFE009400200221614A4023CA
:1025600003F0A8FB01250CE0FFF7CCFE002808D102
:102570007068027804481AA101F0ECFB0120FFF713
:1025800003FF284602B070BD078600088684000855
:102590007061796C6F6164009885000870746C5F7D
:1025A00061636B5F6275666600000000476F7420B0
:1025B0004D53475F4F54534D5F434D445F424C452D
:1025C0005F444953434F4E4E454354454420707237
:1025D000616D657465723D253032780D0A0000002A
:1025E000476F74204D53475F4F54534D5F434D44E5
:1025F0005F424C455F434F4E4E4543544544207027
:1026000072616D657465723D253032780D0A000087
:102610001A85000853850008F0B585B01C460E46A3
:102620000746002B07D1B02000901F481F4920A269
:10263000234B01F08FFB002503950295002F30D12D
:1026400030466738022814D217481EA101F082FBD9
:1026500000940025672102AA02262846334603F08B
:1026600029FB01200002225A611C304603F0F2FDD2
:1026700017E0022E15D134201A4D2E5C304601F0A1
:10268000FFFE0090084818A140273A46334601F063
:1026900061FB0094002002212A463B4603F00AFB1E
:1026A0000125284605B0F0BDD685000886840008BF
:1026B00070746C5F70726F635F62756666000000B5
:1026C000988500084D53475F4F54534D5F434D4429
:1026D0005F424C455F504149525F4F4E2F4F464637
:1026E000200D0A009801002053656E64206D63750B
:1026F000206D6574612073697A653D25642062618F
:102700006E6B5F736C6F743D2564206164647265E9
:1027100073733D253038580D0A00000001490870D8
:102720007047C0465D1900200020704710B5294849
:1027300000F0AEFB0A2839D3264800F0FBFB02204C
:1027400003F0E4F80178427812025118FF292DD0E5
:102750008278C07800028418692912D06A2918D0BA
:102760006B2923D1204603F023F900281ED0027ADA
:10277000807900281BD003208521FF2303F01EFE53
:1027800010BDE0B203F024F9962C0AD100F010F944
:1027900010BDE0B203F01CF9962C05D100F008F949
:1027A00010BD00F019F810BD00F016F810BD0320A0
:1027B0008521012303F002FE10BDC04680B505202F
:1027C00003F01CFD034800F0B5FB0220032103F0D9
:1027D000CBF980BD8419002010B582B0002803D049
:1027E00004468279962A01D102B010BDE379581EC1
:1027F000032817D878440079400087440124373BE8
:10280000254827A101F0A6FA2E4800F041FB8008D8
:102810004B2802D32C48002101702B480178491C19
:1028200001700AE0FF2B32D11B4828A101F092FA77
:102830000020E071234800F07DFBE179A07900F0F1
:1028400083F802B010BDE07A0028CDD12069009055
:102850001148124901F07EFA0120E072E379A27971
:102860000320852103F0AAFD02B010BDE07A002804
:10287000BAD102E0E07A0028B6D12069009006487B
:10288000064901F067FA0120E07202B010BD9C48D1
:102890000021017002B010BDC48400082484000827
:1028A0006B657920253032642070726573736564BE
:1028B000206B65795F7374617475733D2530327870
:1028C0000D0A0000A81A0020A41A00206B657920C8
:1028D000253032642072656C65617365206B6579A3
:1028E0005F7374617475733D253032780D0A000092
:1028F00080B507A00CA101F02DFA05201049114A5E
:1029000003F01CFC0220FF2103F02EF980BDC0461D
:102910007461736B5F6B65795F696E69745F727503
:102920006E6E696E670000007461736B5F6B657932
:102930005F696E69745F72756E6E696E670D0A000D
:1029400059200008651F0008B0B50C46054607A0D1
:102950000DA12A46234601F0FDF99D2D05D1032046
:1029600005212A46234603F029FDB0BD7461736B2F
:102970005F6B65795F6C6F63616C5F6469737061D5
:1029800074636865720000006B65792025303264DD
:10299000206B65795F7374617475733D25303264A3
:1029A0000D0A000080B50220014603F0DDF880BD6D
:1029B000B0B582B000285ED00446807996285AD1FE
:1029C000E379032B2CDC981E022854D3012B4FD122
:1029D0002E483DA1962201F0BDF90920C006012232
:1029E000D103FFF793FA454800F052FA80084B28CC
:1029F00002D3434800210170414D2878401C2870C3
:102A0000C0B2032837D100246C21672268232046F6
:102A100003F0D4FC2C70394800F0D0FA02B0B0BDFD
:102A2000042B0DD0FF2B23D118483649962201F0F4
:102A300091F90020E071314800F07CFA02B0B0BD9D
:102A4000E07A002817D120690090104810A1962242
:102A500001F080F902F0CCFF662100280DD004229D
:102A60000020034603F0AAFC2046FFF7EBFA09E03A
:102A700023480021017002B0B0BD032200200346AC
:102A800003F09CFC0120E07202B0B0BD0385000899
:102A90004F43544F5055535F4B45595F504F574527
:102AA000522070726573736564206B65793D25648F
:102AB00020336C6F6E67206475726174696F6E3D50
:102AC00025640D0A000000004F43544F5055535FDA
:102AD0004B45595F504F574552207072657373656F
:102AE00064206B65793D2564206B65795F73746143
:102AF0007475733D253032780D0A0000AC1A002041
:102B00008819002053840008B0B50C4605461AA069
:102B100021A12A46234601F01DF928469B380328A7
:102B20001BD8C04678440079400087440101170D46
:102B3000022C0ED11E480121C1720920032112224C
:102B4000134603F03BFCB0BD6621002C0DD00422DF
:102B50000CE01748C07A002800D0B0BD0320052142
:102B60002A46234603F02AFCB0BD03220020034678
:102B700003F024FCB0BDC0467461736B5F6B657974
:102B80005F72656365697665645F646973706174BB
:102B900063686572000000006B657920253032643F
:102BA00020737461746520253032640D0A000000C2
:102BB0006419002080B5FFF7B9FD80BD80B504A081
:102BC00009A101F0C7F80220014602F0CDFF80BD47
:102BD0007461736B5F6B65795F73746172745F723C
:102BE000756E6E696E6700007461736B5F6B6579FB
:102BF0005F73746172745F72756E6E696E670D0AD1
:102C00000000000080B504A009A101F0A3F8022093
:102C1000FF2102F0A9FF80BD7461736B5F6B657962
:102C20005F73746F705F72756E6E696E670000001F
:102C30005F73746F705F72756E6E696E670D0A00F8
:102C400080B5274800F076F90020032102F08CFFC0
:102C500080BDC04610B509A00FA101F07BF800248B
:102C6000FF21204602F080FF1249134A204603F05C
:102C700065FA204603F0C2FA10BDC0467461736B5A
:102C80005F73797374656D5F696E69745F72756E79
:102C90006E696E67000000007461736B5F73797317
:102CA00074656D5F696E69745F72756E6E696E676B
:102CB0000D0A000019260008A524000880B5002090
:102CC000022102F051FF80BD80B5054800F0E0F818
:102CD000052804D3024800F02DF9FFF795FA80BDCE
:102CE0007C19002080B504A00AA101F033F800206F
:102CF000022102F039FF80BD7461736B5F737973D9
:102D000074656D5F73746172745F72756E6E696EF7
:102D1000670000007461736B5F73797374656D5F36
:102D200073746172745F72756E6E696E670D0A00FE
:102D300080B504A00AA101F00DF80020FF2102F0E7
:102D400013FF80BD7461736B5F73797374656D5F1E
:102D500073746F705F72756E6E696E67000000004D
:102D60005F73746F705F72756E6E696E670D0A00C7
:102D700010B5002902D0D2B202F060FE10BD0000F2
:102D800010B5402202490020FFF7F2FF10BD0000FD
:102D90009801002010B502460B46104601F020FCB9
:102DA000002807D072B61946104602F063FEC0B282
:102DB00062B610BD02A1114800F0CCFF002010BD8A
:102DC0004572617365206E6F74207065726D6974F1
:102DD000746564206174206164647265737320306B
:102DE00078253038582028706167655F636F756E8D
:102DF0007420307825303858290D0A00997600085B
:102E000010B503460020002903D0D2B2184602F0C4
:102E10005DFE10BD10B504460B46204601F0E0FBF8
:102E2000002806D072B61946204602F059FE62B656
:102E300010BD1346224603A1104800F08BFF00206E
:102E400010BD00004572617365206E6F742070655F
:102E5000726D697474656420617420616464726564
:102E600073732030782530385820286C656E67746D
:102E70006820307825303858290D0A00A8760008D7
:102E800072B60248006862B670470000A01A0020BF
:102E900038B50446002C07D15D20009009A311A28B
:102EA00014A11E4800F056FFFFF7EAFF2168002931
:102EB00003D0814203D8401A38BD002038BD401AE3
:102EC000401E38BD2E2E5C4F54534D5C6F63746FA3
:102ED0007075735F7469636B636F756E7465722E62
:102EE0006300000074696D657220213D204E554CD1
:102EF0004C000000415353455254205741524E4913
:102F00004E473A2025732C2046494C453A202573DC
:102F10002C204C494E453A2025640A00C977000808
:102F20000068002800D00120704710B500F002F8BA
:102F300010BD000038B50446002C07D13D2000909C
:102F400007A30FA212A11C4800F004FFFFF798FF8F
:102F5000002801D0206038BD0120206038BD00006D
:102F60002E2E5C4F54534D5C6F63746F7075735F9E
:102F70007469636B636F756E7465722E6300000015
:102F800074696D657220213D204E554C4C00000047
:102F9000415353455254205741524E494E473A20CF
:102FA00025732C2046494C453A2025732C204C494A
:102FB0004E453A2025640A00A877000838B5044633
:102FC000002C07D14F20009004A30CA20FA1194898
:102FD00000F0C0FE0020206038BD00002E2E5C4FA7
:102FE00054534D5C6F63746F7075735F7469636B7A
:102FF000636F756E7465722E6300000074696D6591
:103000007220213D204E554C4C0000004153534549
:103010005254205741524E494E473A2025732C2096
:1030200046494C453A2025732C204C494E453A20C0
:1030300025640A00B97700080FB410B503A9044B42
:10304000044A029800F01AF910BC08BC04B01847F2
:10305000815800085C0100200FB41CB50246002016
:1030600007AC00290BD0491E01910092064B6A461D
:103070002146069800F002F9009A002111701CBC4C
:1030800008BC04B018470000B539000810B5024B61
:10309000024A00F0F3F810BD815800085C010020DE
:1030A0002021020C01D010211046020A01D0104646
:1030B0000839020901D01046091F820801D01046C4
:1030C000891E420801D0881E7047081A704730B424
:1030D0007446641E2578641CAB4200D21D46635DB5
:1030E0005B00E31830BC184702E008C8121F08C193
:1030F000002AFAD170477047002001E001C1121F79
:10310000002AFBD170470000F0B51FB486B00998C3
:10311000089A030D0021024314D05148514A18184F
:10312000504305141198012810981AD0281A401CF1
:1031300000264D4F4D49009601910490002812DA67
:10314000444211E01198012449A3012801D11098AB
:10315000C1430698119A84600360C26041600BB05D
:10316000F0BD4042E4E70446210500203F4A001C30
:1031700051410391029012E0E00707D032463B46EE
:1031800001990098FDF728FA0191009032463B46DC
:1031900010461946FDF720FA06460F466410002C2B
:1031A000EAD10498039B0028029A0999089806DA44
:1031B000FDF712FA019B009AFDF70EFA05E0FDF704
:1031C00073FA019B009AFDF76FFA04460E4600223F
:1031D000284BFDF7E1FA03D80020C043014607E081
:1031E0000022254B20463146FDF744F9FDF7C4FB8C
:1031F000102409E0002C0ADB0A220023FCF78EFFD2
:10320000079B30321A55641E02460A43F2D111223E
:10321000641C079B121B1C19119B012B03D001235B
:1032200008430ED10AE0084304D01120109000207A
:10323000119077E71098151A6D1E0BE010988242D6
:1032400002DD00236D1C03E0824201DA00236D1EC3
:10325000002BEED0069811998260C16030C07EE7E5
:1032600001FCFFFF104D0000000014400000F03F83
:10327000300000000000F0430000E03FFFB597B0D1
:103280000646002518E2252877D100242746FD4967
:10329000049400E00443761C32780120203A9040E8
:1032A0000842F7D130782A280ED002223078014621
:1032B0003039092916D804990A235943303940185E
:1032C0001443761C0490F1E7189802C804911890F2
:1032D000002904DA012040030443484204900220FC
:1032E0000443761C30782E2814D1042004437078CF
:1032F000761C2A2809D11898761C80C8189009E0F5
:103300000A214F43303FC719761C307801463039C7
:103310000929F5D930786C2810D006DC4C281AD051
:1033200068280ED06A2817D104E0742813D07A28B0
:1033300012D110E00120400504430CE001210905F1
:1033400001E0032109050C437178814203D101207A
:1033500000052418761C761C3078119066280BD056
:1033600013DC58287DD009DC00287BD04528F6D016
:103370004628F4D047281AD1A5E118E0632835D0B3
:10338000642870D0652812D19DE170286CD008DCCB
:103390006728F1D069287BD06E280DD06F2806D120
:1033A000BAE073282ED0752871D0782859D01A9A8F
:1033B000199990476D1C7EE16002400F022809D0E8
:1033C00003280DD00428189801680DD00D60001D49
:1033D000189070E11898EA1701680D604A60F6E7E6
:1033E000189801680D80F2E70D70F0E718986A46AA
:1033F00001781172001D18900020507202A80090F0
:10340000012005E0189802C8189000200091C043E0
:1034100061070DD5002101E00199491C0191B942D4
:1034200012DA8142F8DB009A515C0029F4D10BE0FA
:10343000002101E00199491C01918142FADB019AC6
:103440000099895C0029F5D1019904981A9B471AC3
:1034500021463846199A00F097FA01994019451803
:103460000BE04FE02CE113E04EE00098009900786B
:10347000491C00911A9A199990470198401E019091
:10348000401CF2D1214638461A9B199A10E137E0C8
:103490000A200021009001916002410F022907D00B
:1034A000189A01CA1892C2179446032908D00AE054
:1034B0001898C01DC108C90005C91891944607E0B5
:1034C00000B2C2179446042902D140B2C1178C46FB
:1034D00000226146944506DA0A46002140429141A5
:1034E0008C462D2102E0210504D52B216A4611735B
:1034F000012103E0E10701D02021F7E7029155E027
:103500000A200AE0102008E010200090002104208A
:1035100004430191082703E0082000210191009055
:103520006002410F022907D0189A01CA189200229E
:103530009446032908D008E01898C01DC108C900A6
:1035400005C91891944603E080B2042900D1C0B2A5
:1035500000210291210729D51199702906D0009ADE
:103560001021019B4A401A4305D00EE040216A46D3
:103570001173012108E06146014306D030216A46FB
:1035800011731199517302210291009A0821019B34
:103590004A401A430AD16146014301D1610705D56A
:1035A00030216A46117301217F1E02911199582919
:1035B00004D035A10E910DA90D910DE037A1F9E7C9
:1035C0006146019B009AFCF7A9FD0E9B8C469B5C13
:1035D0000D9A521E0D92137061460143F0D10D9861
:1035E00005A9081A20300190600703D501200004C6
:1035F000844300E001270198874201DD381A00E08A
:103600000020019900904118029809180498401A66
:103610000490E00306D421461A9B199A049800F0FE
:10362000B3F94519002706E003A81A9AC05D199955
:1036300090476D1C7F1C02988742F5DBE0030CD598
:1036400021461A9B199A049800F09EF9451904E046
:103650001A9A3020199990476D1C0099481E0090C5
:103660000029F5DC08E00D980D990078491C0D91B2
:103670001A9A199990476D1C0199481E01900029CA
:10368000F1DC63E10928010030313233343536375B
:10369000383961626364656600000000303132339E
:1036A000343536373839414243444546000000003E
:1036B00000F05AF94519761C3078002800D0E2E570
:1036C00028461BB0F0BD600700D406271898C01D1F
:1036D000C108C90048680A680831C30FDB071891A0
:1036E000190001D09CA108E0210501D59BA104E0AF
:1036F000E10701D09AA100E09AA1430011985B086C
:10370000109165280CD006DC452809D046281DD02C
:10371000472841D141E0662818D067283CD13CE0D9
:103720000021112F01DB112000E0781C0191009095
:1037300008A911A8FFF7E8FC139905910021119A37
:1037400015927F1C12980197009150E00120C0074C
:1037500003900120019008A9009711A8FFF7D4FC5D
:10376000139A149905920022119B009212981593B6
:10377000059A0192002901D0104602E0791C4018F8
:103780000190381A01D5019804E04042401E009093
:10379000781C0190C01B029043E0012F00DA012742
:1037A0000021112F01DD112000E038460191009029
:1037B00008A911A8FFF7A8FC13990591119A0021F7
:1037C000129815920091019721070CD40599B942DE
:1037D00001DB019900E00191012904DD159A491EE0
:1037E000515C302906D0B84201DA011D05DA012109
:1037F000029115E00199491EEDE7002805DC0099CA
:10380000411800910199091A03E0019A411C914263
:1038100000DD01910099401A401C02900120C00770
:103820000390200706D402990198814202DB002010
:10383000C043029000206946C87707AF0121039872
:103840000337C907884224D0022011902B20129000
:10385000039800280CDA404203902D20129007E0D4
:103860000A210398FCF744FC30317F1E0390397025
:103870001199481E11900029F2DC03980028EFD11D
:10388000791E129808703078202108404530BF1EFC
:10389000387006A8C01BC01D03901098007800283F
:1038A00000D00120019941180298C0170918039807
:1038B00009180498401A401E0490E00306D42146DB
:1038C0001A9B199A049800F05FF84519109800782F
:1038D000002803D01A9A199990476D1CE00324D54B
:1038E00021461A9B199A049800F04EF845191CE0DD
:1038F0000098002807DB00990598884203DD159899
:10390000405C199901E0199930201A9A9047009863
:103910006D1C401C00900298401E0290002804D1AB
:103920001A9A2E20199990476D1C0199481E0190F2
:103930000029DDDC05E038781A9A7F1C1999904738
:103940006D1C0399481E03900029F4DC21461A9B44
:10395000199A0498ACE600002D0000002B0000002E
:103960002000000000000000F8B5044600251E46B7
:103970001746880404D405E039462020B0476D1C62
:10398000641EF9D52846F8BDFFB50446002581B070
:103990001E46C80301D5302700E02027880404D53F
:1039A00005E038460399B0476D1C641EF9D52846DA
:1039B00005B0F0BD4A68002A06D00A68531C0B60A7
:1039C00010704868401E4860704710B588B003AA60
:1039D00000920291019004AB05AA06A907A802F083
:1039E00037F96C46217B012000910190237C227DD8
:1039F000217EA08B00F018FA08B010BD10B50B4660
:103A0000002820D0002B1ED0102A1CD90360103AA9
:103A10001A72110A5972110C9972110ED972046836
:103A2000002222706270A270E27001680A71140AAA
:103A30004C71140C8C71120ECA71016818460C314D
:103A40001030FCF7D6FB10BD70B504460D460026BD
:103A500022781046627812021043A278E1781204AC
:103A600010430906237908431A4663791B021A4357
:103A7000A379E1791B041A4309060A43904234D022
:103A800020460C30FCF7ABFB2278034610466278E8
:103A900012021043A278E178120410430906084389
:103AA000185C28700820201802781146427812020B
:103AB00011438278C0781204114300062378014331
:103AC000184663781B021843A378E2781B04184356
:103AD00012061043401CFCF70BFB2170080A6070B3
:103AE000080CA070080EE0700126304670BD70B55D
:103AF00004460E4600250820201802781146427818
:103B0000120211438278C07812041143000623790F
:103B10000143184663791B021843A379E2791B0419
:103B2000184312061043401CFCF7E2FA22780B46B9
:103B30001046627812021043A278E1781204104312
:103B400009060843834233D020460C30FCF747FB7C
:103B5000227903461046627912021043A279E17974
:103B600012041043090608431E5408202018027846
:103B700011464278120211438278C0781204114330
:103B8000000623790143184663791B021843A37981
:103B9000E2791B04184312061043401CFCF7A8FAF4
:103BA0002171080A6071080CA071080EE0710125EE
:103BB000284670BD30B50022D24300240A4D0EE0E5
:103BC000035D1B065A400023002A02DA52006A40B5
:103BD00000E052005B1CDBB2082BF5D3641C8C4266
:103BE000EED3D04330BD0000B71DC104FF21002239
:103BF0002F31484302490A548022401842707047CE
:103C0000F401002070B590B005460C4609A80AA939
:103C10000BAA0092019102900CAB0DAA0FA92846A5
:103C200000F0E8F804A805A906AA00920191029004
:103C300007AB08AA0EA9204600F0DCF808AE3079E0
:103C4000327A317B337C0191039000930292337D71
:103C50006E46B28F0BA1194800F07CF8307C317DA4
:103C6000327E337F0291039008AE00930192337845
:103C70006E46328F12A1114800F06CF8281B10B06C
:103C800070BD000042616E6B20536C6F7420412048
:103C900056657273696F6E3A202530346425303270
:103CA0006425303264253032642530326420284364
:103CB0006F64653A202564290A0000006C7E0008C4
:103CC00042616E6B20536C6F742042205665727394
:103CD000696F6E3A202530346425303264253032E5
:103CE0006425303264253032642028436F64653A9D
:103CF000202564290A0000000FB410B5064840785A
:103D0000002805D00298002802D003A9FFF7BEF9C9
:103D100010BC08BC04B018470801002070B5054667
:103D20000E460848407800280BD0002404E0295DA6
:103D300005A0FFF781F9641CB442F8DB04A0FFF78B
:103D40007BF970BD0801002025303278200000008A
:103D50000D0A00000FB408B51549497800291AD09A
:103D6000039A002A17D0012919D0022919D0032952
:103D700019D0042919D00FA11C2300901A460EA0B7
:103D8000FFF75AF90398002805D00178002902D0DE
:103D900004A9FFF77BF901B008BC04B018470AA1D9
:103DA000EAE70BA1E8E70CA1E6E70DA1E4E70000D4
:103DB00008010020000000005B25735D5B252A2EB2
:103DC0002A735D2000000000444542554700000072
:103DD000494E464F000000005741524E494E4700A1
:103DE0004552524F520000000149087070470000D0
:103DF00008010020F0B5069D059C7D27860E3F0139
:103E0000F6190E808101090F11708102C90E197017
:103E1000C103C90E21700105C90E2970410607981A
:103E2000490E0170F0BD0000F0B5069E059D7D2491
:103E30002401A04200D22046124FB84200D9384691
:103E40000C2900D90C211F2A00D91F22172B00D9B9
:103E500017233B2D00D93B257F2E00D97F26001B41
:103E60008006090789090143D006800A0843D9065C
:103E7000CA0B0243E806010D11437006400E0843C9
:103E8000F0BD00000F080000F8B504684568174948
:103E9000012221405207914205D0224614A1214817
:103EA000FFF758FFF8BD024623461FA11D480095A5
:103EB000FFF750FF0A2000F0F5F972B600202849FC
:103EC000086148618861274B274F421E8100CE1848
:103ED0003260C9190A60401C0028F7D0BFF34F8F29
:103EE000BFF36F8F84F30888A847FEE70000FE2F1A
:103EF000496E76616C6964204170706C69636174AD
:103F0000696F6E204D53503A203078253038582C48
:103F100061626F7274696E67206A756D702E0D0A2A
:103F200000000000677600084A756D70696E6720B2
:103F3000746F203078253038583A204D53503D303A
:103F400078253038582C52657365745F48616E640B
:103F50006C65723D3078253038580D0A000000003D
:103F600000E000E080E100E080E200E010B50648FB
:103F7000FCF735F9810701D5012010BD400701D5B7
:103F8000012010BD002010BDC0010020F8B5024680
:103F9000002902D02948814201D90020F8BD0D46F0
:103FA000286800906E68EF6B00240020002A04D07F
:103FB000012A06D0022A18D10DE00124E406204887
:103FC00013E02048FCF70BF904461E480830FCF7C4
:103FD00006F9201809E01B48001DFCF700F904460B
:103FE00018480C30FCF7FBF82018072200995207FC
:103FF0008918154A914201D30020F8BDA64201D389
:10400000864201D90020F8BDA74201D3874201D9D9
:104010000020F8BD022291006958002905D0A14274
:1040200001D3814201D90020F8BD521C102AF2DBD5
:1040300006A10F48FFF78EFE0120F8BD00F8010829
:1040400000A000089C010020010004006368656373
:104050006B20766563746F72207461626C65207387
:1040600075636365737366756C792E0D0A000000C5
:104070004E76000870B5FEF757FB0024002819D0D3
:10408000FEF752FB0068344DA84206D3FEF74CFB06
:10409000046032A13B48FFF75DFE3B48FCF79FF808
:1040A000A84207D338490020FCF7A3F837A13548C8
:1040B000FFF750FE344814380646FCF790F83C4DA4
:1040C000A84224D0FEF730FB002811D0FEF72CFBCD
:1040D0000460FEF729FBC481FEF726FB8481FEF70E
:1040E00023FB0460FEF720FB8460FEF71DFB4460A9
:1040F00025490020FCF77DF82348210A8473C17309
:104100000473210A41732BA11E48FFF723FE4022AE
:1041100031A11C48FFF71EFE1B4840214038FFF725
:10412000FDFDFEF701FB00280FD03046FCF757F8E5
:10413000A8420AD11C222EA11248FFF70BFEFEF75F
:10414000F3FA1C21FFF7EAFD70BD1C2228A10D48DF
:10415000FFF700FE70BD000017FCFFFF63617220D7
:104160006D6574657220747269705F6F646F20741E
:104170006F6F206D617820636C6561722E2E2E0D3D
:104180000A000000FB760008D801002073797374E0
:10419000656D20747269705F6F646F20746F6F203B
:1041A0006D617820636C6561722E2E2E0D0A000001
:1041B000A5A5000075736572206461746120696E45
:1041C00076616C696420636C65617220616C6C2E31
:1041D0002E2E0D0A000000004C6F6164206D657486
:1041E000617320646174615B253033645D3A200043
:1041F0004C6F6164206D6574657220646174615BED
:10420000253033645D3A200030B58BB00C460E99F2
:104210001546012828D002282AD000282DD018467B
:10422000FFF7D3FB05A906AA07AB00930192029101
:1042300008AB09AA0AA9FFF7DDFD6B46187D197EB8
:104240001A7F08AB1B78019302920391049008AB8C
:10425000187900906B461B8D0AA229462046FEF76E
:10426000FBFE01200BB030BD0D48FBF7B8FFD9E7CE
:104270000B48001DFBF7B3FFD4E70948001FFBF70D
:10428000AEFFCFE7253034752530327525303275D5
:1042900025303275253032755F25303375000000CA
:1042A000B801002010B5044606487D21C900006809
:1042B000FBF71EFF6043002101E000BF491C814263
:1042C000FBD310BD60010020FEB5002405256D0361
:1042D00000280CD01F26F606012812D002283FD055
:1042E000024637A14048FFF735FD2046FEBD3F4856
:1042F000FBF775FF02462B463DA13B48FFF72AFD21
:10430000F3E73A480C300190FBF769FF374C07465A
:10431000201DFBF764FF02463B4643A13248FFF7EE
:1043200019FD201DFBF75BFF04468019A8420AD83F
:104330000198FBF754FF034622462DA12A48FFF7B8
:1043400009FD0020FEBD0198FBF749FF800A401CD3
:1043500072B6C1B2204601F08DFB044662B6C4E7D6
:10436000224810300090FBF73AFF04461F480830FF
:104370000746FBF734FF024623462BA11A48FFF7F6
:10438000E9FC3846FBF72BFF04468019A8420AD8FF
:104390000098FBF724FF0346224615A11248FFF7B9
:1043A000D9FC0020FEBD0098FBF719FF800A401CD5
:1043B00072B6C1B2204601F05DFB044662B694E7D6
:1043C0004572617365206E6F74207065726D6974DB
:1043D0007465642061742062616E6B5F736C6F74CE
:1043E0003A2025640D0A00007F760008980100201D
:1043F0004572617365206E6F74207065726D6974AB
:104400007465642061742061646472657373203024
:104410007825303858202873697A6520307825301F
:104420003858290D0A0000004572617365206164E7
:1044300064726573733A2030782530385820736978
:104440007A653A3078253038580D0A0000B50B48A7
:10445000407D0300FEF73BFE050404070A0D100033
:104460003F20C00200BD5520800200BD1F20C002B9
:1044700000BD1520C00200BD002000BDB801002015
:1044800010B5002805D0012806D0022808D0002049
:1044900010BD0120C00610BD0448FBF7A0FE10BDF2
:1044A0000248001DFBF79BFE10BD00009C01002090
:1044B000002805D0012805D0022805D003A07047A8
:1044C00004A0704705A0704705A07047556E6B6E3D
:1044D0006F776E004C6F61646572000041000000F0
:1044E000420000000148407D70470000B8010020F4
:1044F0000148007D70470000B801002000B5FFF7BB
:10450000F7FFC0B2FFF7D4FF00BD000010B50446AE
:10451000084611460246204601F072F800280DD0E8
:1045200022460E490E48FFF715FC2046FFF7ACFC6B
:1045300022460CA10A48FFF70DFC10BD2246164981
:104540000748FFF707FCFFF7D3FF0128F5D0FFF777
:10455000CFFF0228F1D0FFF7CBFF10BD408000084D
:104560001C76000842616E6B206A756D7020666172
:10457000696C6564212043616E204E6F74204A751A
:104580006D70696E6720746F203078253038582E32
:104590002E2E0D0A00000000F87F000810B50E4A0C
:1045A0001278002A09D0012A0ED0022A04D1FFF77E
:1045B0000CFA0A49FBF71DFE10BDFFF706FA074982
:1045C0000839FBF716FE10BDFFF7FFF90349091F75
:1045D000FBF70FFE10BD000000010020BC01002011
:1045E0001F21C906401805214903884201D800202F
:1045F000704701207047000070B505460C461A4808
:10460000FBF7EDFDA8420BD1A04207D80146FFF70A
:104610001DFF0818A04201D9012070BD002070BD07
:104620001148001DFBF7DBFDA8420BD1A04207D8C3
:104630000146FFF70BFF0818A04201D9012070BD09
:10464000002070BD0848001FFBF7C9FDA84208D133
:10465000A04204D80548844201D2012070BD002048
:1046600070BD002070BD00009C01002000A000086B
:1046700010B504461448FBF7B2FD1449884201D036
:10468000012010BD002C05D0012C05D0022C0FD02C
:10469000002010BD002010BD0B481838FBF79FFD0F
:1046A000411C03D0002801D0002010BD012010BD06
:1046B00005481438FBF793FD411C03D0002801D0B6
:1046C000002010BD012010BDC4010020A5A50000E0
:1046D00070B5264C607D002801D0052801D300204C
:1046E00070BDFFF705FF002809D0FFF701FF012883
:1046F00005D0FFF7FDFE022801D0002070BD1B4849
:104700001C38FBF76CFD1A4D060004D02846FBF759
:1047100066FD002804D1607D032801D3002070BD10
:10472000300009D12846FBF75AFD002804D1607DEE
:10473000032801D2002070BD0D48001DFBF74FFD7E
:10474000002804D0FFF7D4FE002802D00BE00020A0
:1047500070BD07480838FBF742FD0121C9068842B1
:1047600001D0002070BD012070BD0000B801002004
:10477000A0010020FEB562A0FFF7BEFA002500F000
:104780000FFE00F053FE604C5E48214600780C316D
:10479000019127461C31202614370091012804D0AE
:1047A000022834D0002865D098E03846FBF717FD82
:1047B00005460120FFF75CFF0028F5D053A15A48B9
:1047C000FFF7C8FA59A15848FFF7C4FA0198FBF758
:1047D00006FD0146FFF73AFE81420CD872B60198F9
:1047E000FBF7FDFC0546201DFBF7F9FC2946FFF70A
:1047F000E1F9054662B639462846FBF7FAFC00980F
:10480000FBF7EDFC30430099FBF7F3FC66E0022078
:10481000FFF72EFF002861D04DA14348FFF79AFA19
:1048200042A14148FFF796FA374810300446FBF79B
:10483000D6FC0146FFF70AFE81420DD872B620462B
:10484000FBF7CDFC044630480830FBF7C8FC214696
:10485000FFF7B0F9054672B62B4928461831FBF729
:10486000C8FC0098FBF7BBFC402108430099FBF70C
:10487000C0FC33E024482030407D02282ED10120A6
:10488000FFF7F6FE002829D038A12748FFF762FA83
:1048900026A12548FFF75EFA0198FBF7A0FC014628
:1048A000FFF7D4FD81420CD872B60198FBF797FC54
:1048B0000546201DFBF793FC2946FFF77BF90546CB
:1048C00062B639462846FBF794FC0098FBF787FC54
:1048D00030430099FBF78DFC00F026FFEFF30882D0
:1048E0002BA11148FFF736FA002431A10E48626867
:1048F000FFF730FA36A10C48E26BFFF72BFAFEBD4A
:104900000D0A000000010020980100204669727322
:10491000742D53746167652062616E6B20736C6FD8
:104920007420610D0A000000E47500085374617280
:1049300074696E6720646174612073796E63687254
:104940006F6E697A6174696F6E2E2E2E0D0A0000EB
:1049500046697273742D53746167652062616E6B72
:1049600020736C6F7420620D0A0000004669727338
:10497000742D537461676520426F6F7420446574B1
:10498000656374656420736C6F7420610D0A0000A8
:104990005F5F6765745F4D535020202020202020EA
:1049A0002020203A203078253038580D0A000000A9
:1049B00052657365745F48616E646C657220202077
:1049C0002020203A203078253038580D0A00000089
:1049D0005379735469636B5F48616E646C657220D0
:1049E0002020203A203078253038580D0A00000069
:1049F000F0B589B00C46164696490870964D287554
:104A000000F03AFAFFF7B6FE31462046FFF7C6FD42
:104A100000F06CFB0026002700200190FFF768FDE6
:104A20002C460146203C2046143008900838079058
:104A3000001F06901030059008380490183003903D
:104A4000002903D0687D032861D053E0FFF78EFA78
:104A5000002807D0FFF752FD024680A18D48FFF7DE
:104A600079F947E00398FBF7BAFB80061ED5201DB5
:104A7000FBF7B5FB04460898FBF7B1FB0646079821
:104A8000FBF7ADFB074684A18248FFF763F9214697
:104A90000120FFF77BFA002804D03A463146204631
:104AA000FFF734FD86A17B48FFF754F90398FBF725
:104AB00096FB40061ED50698FBF791FB0446059829
:104AC000FBF78DFB06460498FBF789FB074688A198
:104AD0007048FFF73FF921460220FFF757FA0028F8
:104AE00004D03A4631462046FFF710FD8AA16948B6
:104AF000FFF730F9FFF7FCFC00287DD0FFF7FEFC44
:104B0000024691A16348FFF725F909B0F0BD52486C
:104B1000001DFBF764FB02902846FBF760FB02993F
:104B2000FFF770F8002833DB0398FBF758FB81068A
:104B300017D5201DFBF753FB06460898FBF74FFBE4
:104B400007460798FBF74BFB0190FFF7D1FC0246A5
:104B500084A15048FFF7FEF8FFF7CAFC0128D4D023
:104B600049E0400647D50698FBF739FB064605980D
:104B7000FBF735FB07460498FBF731FB019087A153
:104B80004448FFF7E7F8FFF7B3FC0228BDD032E056
:104B90000398FBF724FB410617D50698FBF71FFB8C
:104BA00006460598FBF71BFB07460498FBF717FB27
:104BB0000190FFF79DFC024687A13648FFF7CAF82F
:104BC000FFF796FC0228A0D015E0800613D5201D23
:104BD000FBF705FB06460898FBF701FB074607981D
:104BE000FBF7FDFA01908AA12A48FFF7B3F8FFF717
:104BF0007FFC012889D000E00DE0FFF779FCC0B20E
:104C00003146FFF7C3F90028A9D039463046019A4A
:104C1000FFF77CFC79E7FFF771FC02468BA11D488A
:104C2000FFF798F8687D022402280BD00428F1D100
:104C30000398FBF7D4FA2043042108430399FBF7B8
:104C4000D8FA62E70398FBF7CAFA20430399FBF707
:104C5000D0FA5AE700010020B8010020546865200E
:104C600062616E6B28257329206E656564732074FC
:104C70006F2062652075706772616465642062658B
:104C8000666F72652070726F63656564696E672E0A
:104C90000D0A0000FF750008426F6F746C6F61644D
:104CA000657220737461727420746F20616374691B
:104CB000766520736C6F7420412E2E2E0D0A000035
:104CC00042616E6B20736C6F7420412069732069A0
:104CD0006E76616C69642066616C6C6261636B20E6
:104CE000746F206C6F616465722E2E2E0D0A0000A9
:104CF000426F6F746C6F616465722073746172745B
:104D000020746F2061637469766520736C6F742002
:104D1000422E2E2E0D0A000042616E6B20736C6FC6
:104D200074204220697320696E76616C6964206624
:104D3000616C6C6261636B20746F206C6F61646581
:104D4000722E2E2E0D0A0000456E746572696E6714
:104D50002072756E6E696E6720282573292E2E2E9F
:104D60000D0A000042616E6B204163746976652014
:104D7000536C6F742020203A20412C666C6173685C
:104D80005F6765745F63757272656E745F62616E92
:104D90006B28293D25640D0A00000000536C6F74D8
:104DA00020412061637469766174696F6E20666169
:104DB000696C65642E2066616C6C6261636B207443
:104DC0006F20536C6F74204220696E69746961743E
:104DD00065642E0D0A00000042616E6B2041637411
:104DE00069766520536C6F742020203A20422C662F
:104DF0006C6173685F6765745F63757272656E740A
:104E00005F62616E6B28293D25640D0A0000000079
:104E1000536C6F7420422061637469766174696FAA
:104E20006E206661696C65642E2066616C6C6261DF
:104E3000636B20746F20536C6F74204120696E691E
:104E40007469617465642E0D0A000000456E746516
:104E500072696E6720626F6F746C6F616465722037
:104E600075706772616465206D6F646528257329AC
:104E70002E2E2E0D0A00000010B518A0FEF73CFFE4
:104E80001748FEF739FF17A0FEF736FF23A0FEF7FD
:104E900033FF30A0FEF730FF3CA0FEF72DFF49A006
:104EA000FEF72AFF55A0FEF727FF63A0FEF724FFB9
:104EB0006EA170A0FEF720FF73A276A178A0FEF786
:104EC0001BFFFFF71BFB01467BA0FEF715FF7FA032
:104ED000FEF712FF0248FEF70FFF10BD0D0A00009B
:104EE000A87F000820202020202020202020202013
:104EF0002020205F5F5F5F5F202020202020202077
:104F000020202020202020202020202020202020A1
:104F10002020202020202020200D0A00205F5F5F1D
:104F20005F5F5F205F5F5F5F5F5F5F5F5F20202F7E
:104F30005F5F5F5F5F5F5F205F5F5F5F5F5F5F5FC0
:104F4000205F5F5F5F20205F5F5F5F5F5F5F5F5F2E
:104F50005F0D0A00205F20205F5F205C5F20205FE4
:104F60005F5F2F5F20205F5F2F5F20205F5F205CEF
:104F70005F5F5F20205F5F205C5F20202F202F205D
:104F80002F5F5F20205F5F5F2F0D0A00202F202FF3
:104F90005F2F202F2F202F5F5F20202F202F5F20BB
:104FA000202F202F5F2F202F5F5F20202F5F2F20AB
:104FB0002F2F202F5F2F202F205F285F5F20202999
:104FC000200D0A00205C5F5F5F5F2F205C5F5F5FEA
:104FD0002F20205C5F5F2F20205C5F5F5F5F2F20B2
:104FE0005F20202E5F5F5F2F205C5F5F2C5F2F2094
:104FF000202F5F5F5F5F2F20200D0A0020202020E0
:1050000020202020202020202020202020202020A0
:1050100020202020202020202F5F2F202020202033
:105020002020202020202020202020202020202080
:1050300020200D0A0000000020456D626564646553
:1050400064205265616C2D54696D65205461736BE9
:10505000205363686564756C6572202B2046534D40
:1050600020456E67696E650D0A000000302E302EF7
:1050700031000000204669726D7761726520203A28
:10508000207625730D0A000031393A30343A333234
:10509000000000004F63742031312032303235007F
:1050A00020436F6D70696C656420203A2025732061
:1050B00025730D0A00000000204D6F64756C65209B
:1050C0002020203A2025730D0A000000204175742D
:1050D000686F72202020203A204F63746F707573C0
:1050E00020446576205465616D0D0A0010B539487D
:1050F000FBF775F8024638A13F48FEF72BFE35480E
:10510000001DFBF76CF802463CA13B48FEF722FE6F
:1051100030480830FBF763F8024640A13648FEF7F6
:1051200019FEFFF793F9024644A13348FEF712FE39
:1051300028480C30FBF753F8024648A12E48FEF7EA
:1051400009FE24481030FBF74AF802464BA12A48D2
:10515000FEF700FE1F481430FBF741F802464FA14E
:105160002548FEF7F7FD1B481830FBF738F80246D4
:1051700052A12148FEF7EEFD16482830FBF72FF824
:10518000024656A11C48FEF7E5FD12482C30FBF7FD
:1051900026F8024659A11848FEF7DCFD0D483030CC
:1051A000FBF71DF802465DA11348FEF7D3FD094C3D
:1051B00062A12034227D1048FEF7CCFD627D67A1FC
:1051C0000D48FEF7C7FD6D4A6DA10B48FEF7C2FD05
:1051D00010BD000098010020426F6F746C6F616415
:1051E00065722041646472657373203A20307825BB
:1051F0003038580A00000000C9750008536C6F74FD
:105200002041204164647265737320202020203A7D
:10521000203078253038580A00000000536C6F7435
:105220002042204164647265737320202020203A5C
:10523000203078253038580A00000000536C6F7415
:1052400020412F42204D61782053697A6520203A11
:10525000203078253038580A00000000536C6F74F5
:1052600020412053697A6520202020202020203AE8
:10527000203078253038580A00000000536C6F74D5
:1052800020422053697A6520202020202020203AC7
:10529000203078253038580A00000000435243205F
:1052A00028536C6F74204129202020202020203A90
:1052B000203078253038580A00000000435243203F
:1052C00028536C6F74204229202020202020203A6F
:1052D000203078253038580A000000004170707086
:1052E0002053746174757320466C61677320203A93
:1052F000203078253038580A000000004D6574656C
:105300007273204461746120466C61677320203A97
:10531000203078253038580A00000000436F6E6650
:105320006967204461746120466C61677320203A8C
:10533000203078253038580A0000000042616E6B3A
:10534000204163746976656420536C6F7420203A41
:10535000203078253032580A000000004C6F61641C
:1053600065722042616E6B204D6F64652020203A8B
:10537000203078253032580A0000000000FC010877
:10538000466C617368204D65746120416464726588
:105390007373203A203078253038580A0000000016
:1053A00010B5402211491248FDF72AFD0F49104857
:1053B0001C2240318030FDF723FDFDF7B5F90028B0
:1053C0000DD0FDF7B1F901461C220A48FDF718FD82
:1053D000FDF7AAF9026808A11348FEF7BBFCFEF727
:1053E00049FE10A0FEF788FC10BD000098010020C7
:1053F00000FC010800FD01087461736B5F6361725A
:10540000696E666F5F6765745F6D657465725F690D
:105410006E666F28292D3E747269705F6F646F3DF0
:10542000253038780D0A000014770008FEB54D4885
:105430004D4902780A7540784875FFF707F8044629
:10544000494D4A7D203D2946103101912E460120CB
:10545000091F0836C00600911300FDF738FE050449
:1054600004213D756600404907462039FAF7C1FE20
:10547000291D3846FAF7BDFE31460020FAF7B9FE7D
:105480000098FAF7ACFE002801D0A04203D92046CC
:105490000099FAF7AEFE00200199FAF7AAFE53E050
:1054A00031492039FAF7A5FE291D3048FAF7A1FE47
:1054B00031460020FAF79DFE0098FAF790FE00288A
:1054C00001D0A04203D920460099FAF792FE0020AD
:1054D0000199FAF78EFE37E0234907462039FAF79B
:1054E00088FE0098FAF77BFE002801D0A04203D97D
:1054F00020460099FAF77DFE0198FAF770FE002821
:1055000001D0A04203D920460199FAF772FE291D65
:105510003846FAF76EFE0098FAF761FE012189021B
:1055200040183146FAF765FE0EE00F492039FAF7C8
:1055300060FE0098FAF753FE002801D0A04203D97C
:1055400020460099FAF755FE074808300446FAF756
:1055500046FE000F0F2803D121460020FAF749FE2E
:10556000FEBD000000010020B801002000A40008DA
:1055700010B5214C217060706260002B3BD072B678
:105580001E4B002924D0012902D0022932D10FE07C
:105590000020810054585C50401CC0B23028F8D321
:1055A00001210846FBF7F6FF0320FCF75BF921E039
:1055B0000020810054585C50401CC0B23028F8D301
:1055C00001210846FBF7E6FF0320FCF74BF911E049
:1055D00000200122D20681008C1824685C50401CF7
:1055E000C0B23028F7D301210846FBF7D3FF0320D0
:1055F000FCF738F962B610BD000100200000002061
:10560000F8B507460D461446002F0ED0002D0CD0DD
:10561000002C0AD0FEF71AFFA8420FD22A4615A185
:105620002248FEF797FB0020F8BD2B463A4620A102
:105630001E480094FEF78EFB0020F8BD2B463A462C
:105640001BA11A480094FEF785FB72B6294638461E
:10565000FEF7B0FA064662B62B463A4623A1134837
:105660000096FEF777FBA64201D10120F8BD00208D
:10567000F8BD000043524320636865636B20666198
:10568000696C656420626563617573652074686523
:105690002062616E6B2073697A6520697320696E80
:1056A000636F72726563740D0A0000003376000840
:1056B00042616E6B20637263207665726966792041
:1056C0006174203078253038582073697A653A3013
:1056D0007825303858206578706563746564206378
:1056E00072633A3078253038580D0A0042616E6B8B
:1056F0002063726320766572696679206174203058
:1057000078253038582073697A653A3078253038F2
:10571000582063616C63756C6174206372633A3006
:1057200078253038580D0A0010B525492548FAF774
:1057300060FD254C01212046FDF72CFBC2B223A1C0
:105740002C48FEF707FBFCF7EFFF00280ED0FCF714
:10575000EBFF1B4900681431FAF74BFDFCF7E4FF3F
:105760001749808914310873000A4873144940228C
:105770002C392046FDF74EFBC2B21FA11D48FEF793
:10578000E9FA0F4910481C2214318030FDF742FB22
:10579000C2B224A11748FEF7DDFAFCF7C5FF0028C6
:1057A0000DD0FCF7C1FF01461C222948FDF732FB52
:1057B000FCF7BAFF026827A10E48FEF7CBFA10BD2E
:1057C000C4010020A5A5000000FC0108666C6173FF
:1057D000685F777269745F616C6C5F696E666F7227
:1057E000206E6565642025642070616765732E2EC8
:1057F0002E0D0A00E67600085361766520666C611E
:105800007368206D65746120696E666F726D617476
:10581000696F6E20636F756E743D25642E2E2E2089
:105820000D0A000053617665207379737465206DED
:1058300065746120696E666F726D6174696F6E2048
:10584000636F756E743D25642E2E2E200D0A0000A8
:1058500000FD010853617665206361726966206D01
:1058600065746572206461746120747269705F6F21
:10587000646F3D253038782E2E2E200D0A00000052
:1058800038B504460020009000941F4801780B00B2
:10589000FDF71DFC0A060B10151A1F24292E33379D
:1058A00001216846FCF7AAFA2BE001216846FCF7C3
:1058B0000FFB26E001216846FCF7A5FA21E0012153
:1058C0006846FCF7A2FA1CE001216846FCF79FFA43
:1058D00017E001216846FCF79CFA12E001216846B6
:1058E000FCF799FA0DE001216846FCF796FA08E00A
:1058F00001216846FCF793FA03E001216846FCF7B2
:1059000090FA204638BD000008010020F8B5184A7A
:10591000FF211170002151700646FF202F304643B1
:105920001448815D4F067F0E301800904078440681
:10593000640EC509002D10D106210098614341185D
:10594000891C06220A48FAF726FC641CE4B2322CB1
:1059500000D30024A74200D10125002D01D08020D2
:10596000044304488755009844700148F8BD00007E
:105970000A010020F401002070B5002104780B4BCF
:105980008A009A581578AC420AD145785678B542C3
:1059900006D185789278954202D1491CC8B270BD73
:1059A000491CC9B20C29EBD3002070BD2C0100208A
:1059B000064905E09288824201D108687047091DB6
:1059C0000A68002AF6D10020704700006019002004
:1059D000064905E09279824201D108687047091DA5
:1059E0000A68002AF6D100207047000064010020F8
:1059F00010B510210148FCF783FA10BD00040048DF
:105A000010B501210923C903DB060B4C002809D07E
:105A100001221846FCF77AFA012210212046FCF7F1
:105A200075FA10BD00221846FCF770FA002210210A
:105A30002046FCF76BFA10BD0004004810B580B298
:105A4000FBF788FB024602A10948FEF783F910BD67
:105A500053617665206461746120746F20656570A0
:105A6000726F6D207374617475733A25640D0A004A
:105A7000FF7E000870B505460E460024FBF702FACB
:105A80000848FBF793F907E0A0024019FBF7A2F9D9
:105A9000042800D0FEE7641CB442F5D3FBF7CEF92E
:105AA000204670BD3404000010B502A10648FEF780
:105AB00051F910BD68616C20666C61736820696E75
:105AC00069740D0A00000000F07E000810B503465E
:105AD0000846144622461946FAF75DFB204610BDDB
